:020000040800F2
:10000000F80500209D010008C7170008B716000872
:10001000C5170008CD0200085920000800000000A4
:10002000000000000000000000000000811A00082D
:10003000E902000800000000C9170008831A000840
:10004000B7010008B7010008B7010008B7010008B0
:10005000B7010008011A0008B7010008B70100083D
:10006000B7010008B7010008B7010008B701000890
:10007000B7010008B7010008B7010008B701000880
:10008000D1020008DD020008B7010008B70100082E
:10009000B7010008B7010008B7010008B701000860
:1000A000B7010008B7010008B7010008B701000850
:1000B000B7010008B7010008B7010008B701000840
:1000C000B7010008B7010008B7010008B701000830
:1000D000B7010008B701000819200008B70100089F
:1000E000EB020008B7010008B7010008B7010008DB
:1000F000B7010008B7010008B7010008B701000800
:10010000B7010008B7010008B7010008B7010008EF
:10011000B7010008B7010008B7010008B7010008DF
:10012000B7010008B7010008B7010008B7010008CF
:10013000B7010008B7010008B7010008B7010008BF
:10014000B7010008B7010008B7010008B7010008AF
:10015000B7010008B7010008B7010008B70100089F
:10016000B7010008B7010008B7010008B70100088F
:10017000B7010008B7010008B7010008000000003F
:10018000B7010008B7010008DFF80CD000F08CF8C8
:1001900000480047A1220008F805002006488047D3
:1001A00006480047FEE7FEE7FEE7FEE7FEE7FEE75C
:1001B000FEE7FEE7FEE7FEE7111B000889010008E5
:1001C0002DE9F05F0546002092469B46884606468C
:1001D000814640241BE0284641464746224600F01F
:1001E00052F853465A46C01A914110D31146184648
:1001F000224600F039F82D1A67EB01084F462246D7
:100200000120002100F030F817EB00094E41201EBC
:10021000A4F10104DFDC484631462A46434600F09B
:1002200000B830BCBDE8C09FD2B201E000F8012B9D
:10023000491EFBD270470022F6E710B513460A4666
:1002400004461946FFF7F0FF204610BD10B5002206
:1002500000E0521C835C8C5CA34201D1002BF8D1DE
:10026000D8B2E1B2401A10BD202A04DB203A00FACD
:1002700002F1002070479140C2F1200320FA03F3FD
:10028000194390407047202A04DB203A21FA02F0FB
:100290000021704721FA02F3D040C2F120029140C0
:1002A0000843194670470000064C074D06E0E06819
:1002B00040F0010394E8070098471034AC42F6D3AD
:1002C000FFF766FF6424000884240008FEE70000AE
:1002D000014800F010B8000068010020014800F05B
:1002E0000AB80000B001002070474FF4005000F041
:1002F000E5B872B6FEE7F0B4016C0C6801680D68F1
:1003000090F8442002F01C06042202FA06F323426D
:1003100011D06B070FD50B689B0603D40B6823F035
:1003200004030B6090F8441001F01C018A40016C3A
:100330004A60016B1DE0022303FA06F727424FF0E3
:10034000000C4FF0010218D0AF0716D50C68A406B8
:1003500005D40C6824F00A040C6080F8252090F87D
:10036000441001F01C018B40016C4B6080F824C0EC
:10037000C16A00291AD0F0BC08470823B3402342C1
:1003800014D02B0712D50B6823F00E030B6090F8E6
:100390004410036C01F01C0102FA01F15960C263C0
:1003A00080F8252080F824C0416BE2E7F0BC70475C
:1003B00070B568B12B4C036814212B4AA34209D2B3
:1003C0002A4C1C44B4FBF1F18900C0E910210BE078
:1003D000012070BD234C64421C44B4FBF1F1890040
:1003E0004164204908390164022180F825101C6805
:1003F00047F6F0718C43D0E902152943D0E9045641
:100400003543294385692943C5692943056A294339
:10041000214319608168B1F5804F19D0036C0F2119
:10042000934202D152F8A83F02E00E4AA03213686C
:1004300090F8444004F01C04A1408B43136090F8F2
:100440004430416803F01C0399401368194311605C
:100450000021C163012280F8252080F8241008467D
:1004600070BD00000804024000000240F8FFFDBF1C
:1004700070B5044600F066F90546601C02D00448D9
:100480000078044400F05EF9401BA042FAD370BD2E
:1004900074000020B0F5005F01D000BF704705492F
:1004A000087880F00100087080F001028021024885
:1004B00000F043B90000002000080048044910B5CE
:1004C0000A68024202D00860FFF7E4FF10BD000096
:1004D000140401402DE9F04FDFF83492002309F1B4
:1004E000040A012403250AF1040B87B00F270BF13E
:1004F000040E04E104FA03F632407CD0D1F804C0C3
:10050000BCF1010F08D0BCF1020F05D0BCF1110FF6
:1005100002D0BCF1120F29D1D0F808C0CDF800C02C
:100520004FEA430C05FA0CF8CDF80CC0DDF800C01A
:100530002CEA080CCDF800C0D1F80C80DDF80CC016
:1005400008FA0CF8DDF800C048EA0C08C0F808808A
:10055000D0F8048091F804C028EA0608CCF3001C07
:100560000CFA03FC4CEA080CC0F804C0D1F8048073
:100570006FEA080C5FEA8C7C09D1D0F82CC02CEA19
:10058000060CC8F3C0069E4046EA0C06C662D0F8C8
:100590000CC04FEA430805FA08F62CEA060CCDF821
:1005A000148002968E6806FA08F646EA0C06C660C3
:1005B0004E68022E01D0122E15D1DE0800EB860601
:1005C0000396366A4FEA437C4FEADC6807FA08FC78
:1005D00026EA0C06D1F810C00CFA08FC4CEA060C0E
:1005E000039EC6F820C00668DDF808C026EA0C069F
:1005F00091F804C000E081E0DDF814800CF0030CF9
:100600000CFA08FC4CEA060CC0F800C04E68F60074
:1006100074D5404ED6F860C04CF0010CC6F860C0EE
:10062000366E23F0030C06F0010600963A4E66443F
:100630000296D6F808C09E074FEA167807FA08F621
:100640002CEA060CB0F1904F04D0344EB04203D1E6
:1006500001261BE0002619E0314EB04201D10226EE
:1006600014E0304EB04201D103260FE02E4EB042CE
:1006700001D104260AE02D4EB04201D1052605E045
:100680002B4EB04201D1062600E0072606FA08F6F6
:1006900046EA0C06DDF808C0CCF80860D9F800601E
:1006A000CC46D1F8048096435FEAC83800D516439B
:1006B000CCF80060DAF80060D446D1F804809643A4
:1006C0005FEA883800D51643CCF80060DBF800609C
:1006D000DC46D1F8048096435FEAC82800D516436B
:1006E000CCF80060DEF80060F446D1F80480964350
:1006F0005FEA882800D51643CCF800605B1C0A68C6
:1007000032FA03F67FF4F6AE07B000F013B800003B
:1007100000040140001002400000014000040048B5
:1007200000080048000C0048001000480014004871
:100730000018004830BCBDE8C08F0AB18161704725
:100740008162704701488068704700007400002093
:10075000024881680278114481607047740000206B
:10076000094810B50168002441F48071016003203C
:1007700000F07AF8002000F009F808B1012401E047
:1007800000F026F8204610BD0020024070B50E4E45
:1007900005460024307898B14FF47A71B1FBF0F03F
:1007A0000A490968B1FBF0F000F01EFE40B9102DB7
:1007B00006D200222946501E00F036F8756000E08F
:1007C0000124204670BD000074000020800000203D
:1007D0000D4808B5016E41F001010166016E01F09E
:1007E00001010091816D41F080518165806D002291
:1007F00000F0805000901146052000F015F8BDE88B
:100800000840052000F002B800100240002809DB73
:1008100000F01F02012191404009800000F1E0201A
:10082000C0F8001170470000F0B40E4B1B680C4676
:10083000C3F30223C3F10705042D00D90425191DB4
:10084000072901D2002300E0DB1E012606FA05F18C
:10085000491E214099409E40761E16403143F0BC0F
:1008600001F0FBBB0CED00E0064900F00702086850
:100870004FF6FF03184040EA0220034A1043086085
:10088000704700000CED00E00000FA051649B0F5D5
:10089000007F0868C0F3412009D0022805D008680D
:1008A00020F4C06040F48060086000207047012898
:1008B000FBD0086820F4C06040F4007008600B486A
:1008C0003222006850430A4AB0FBF2F0401C00E0BC
:1008D000401E4A69520501D50028F9D148694005F2
:1008E000E3D5032070470000007000408000002026
:1008F00040420F000248006800F4C06070470000EA
:10090000007000402DE9F84F044600270088E54DAF
:100910003E46010504F1200B1DD5606E78B1B0F59F
:10092000800F11D0B0F5000F04D0B0F5400F22D0E9
:1009300001270FE0E86840F48030E8601BE0002108
:10094000201D00F043FF03E00021584600F0D4FFD3
:10095000070010D03E462088C00426D5A06EC0B146
:10096000B0F1807F1AD0B0F1007F0DD0B0F1407FA0
:1009700019D0012718E0D5F88800616E20F44000F6
:100980000843C5F88800E6E7E86840F48030E8608E
:1009900009E00021201D00F019FF03E00021584666
:1009A00000F0AAFF0746F7B13E46206880033AD51B
:1009B000A86D4FF00008C00009D4A86D40F0805029
:1009C000A865A86D4FF0010800F080500090DFF896
:1009D000D8A2DAF8001041F48071CAF80010FFF7CD
:1009E000B1FE814610E0D5F88800A16E20F040707D
:1009F0000843C5F88800D8E7FFF7A4FEA0EB09007C
:100A0000022801D9032705E0DAF80000C005F3D574
:100A1000002F7CD04FEA0706B8F1000F03D0A86D75
:100A200020F08050A8652078C00707D0D5F888004E
:100A3000A16B20F003000843C5F8880020788007E8
:100A400007D5D5F88800E16B20F00C000843C5F805
:100A500088002078400707D5D5F88800216C20F061
:100A600030000843C5F888002078000707D5D5F87E
:100A70008800616C20F0C0000843C5F88800207829
:100A8000C00607D5D5F88800A16C20F44070084353
:100A9000C5F888002078800607D5D5F88800E16C75
:100AA00020F440600843C5F888002088800507D5F9
:100AB000D5F88800E16D20F440200843C5F888008F
:100AC0002088400507D5D5F88800216E20F4401015
:100AD0000843C5F888002078400607D5D5F8880077
:100AE000216D20F440500843C5F8880020780006A6
:100AF00007D5D5F88800616D20F440400843C5F85B
:100B000088002088C00509D5D5F8880000E01CE0E1
:100B1000A16D20F440300843C5F8880020884FF0CC
:100B2000006780044FF080684FD5D5F88800E16EEB
:100B300020F040600843C5F88800E06EB8423CD120
:100B4000E86840F48010E8603FE0D5F8900010F4C9
:100B5000407015D0D4F88410814211D0D5F890009F
:100B6000D5F8901020F4407041F48031C5F8901011
:100B7000D5F8901021F48031C5F89010C5F8900098
:100B8000C00710D0FFF7DEFD074641F2883906E0C6
:100B9000FFF7D8FDC11B494501D903263CE7D5F82D
:100BA00090008007F4D5D5F89000D4F8841020F494
:100BB00040700843C5F890002EE7404505D101215B
:100BC000201D00F003FE00B106462068000317D583
:100BD000D5F88800216F20F040600843C5F88800F0
:100BE000206FB84204D1E86840F48010E86007E064
:100BF000404505D10121201D00F0E8FD00B1064669
:100C00002068400317D5D5F88800616F20F0406058
:100C10000843C5F88800606FB84204D1E86840F422
:100C20008010E86007E0404505D10121201D00F05B
:100C3000CDFD00B10646208840041AD5D5F88800BD
:100C4000A16F20F040500843C5F88800A06FB0F1B4
:100C5000805F03D0B0F1005F05D00AE00221201DC3
:100C600000F0B4FD03E00221584600F045FE00B15B
:100C700006462088000407D5D5F88800E16F20F0EB
:100C800080400843C5F888002068C00307D555F8A0
:100C9000880FD4F8801020F00040084328603046C8
:100CA00000F004B8001002400070004018BCBDE81D
:100CB000E08F00002DE9F0470F46050058D0404E68
:100CC000306800F00700B84209D2306820F0070011
:100CD00038433060306800F00700B84248D12878C7
:100CE000384CC0072CD06868032811D0022812D0D5
:100CF000216898B1490500293ADAA16821F0030179
:100D00000143A160FFF71EFD804641F2883910E0E3
:100D100021688901EFE721688903ECE78907EAE7A1
:100D2000FFF710FDA0EB0801494502D90320BDE8FB
:100D3000F087A068696800F00C00B0EB810FEFD17C
:100D40002878800705D5A068A96820F0F00008433E
:100D5000A060306800F00700B8420BD9306820F07E
:100D6000070038433060306800F00700B84201D017
:100D70000120DCE72878400705D5A068E96820F461
:100D8000E0600843A0602878000706D5A0682969BC
:100D900020F4605040EAC100A06000F03FF8A16874
:100DA000094AC1F30311515C01F01F01C840074912
:100DB000086007480068BDE8F047FFF7E7BC00009F
:100DC00000200240001002401C2400088000002087
:100DD000780000200548064900688968054AC1F383
:100DE0000221515C01F01F01C840704780000020C3
:100DF000001002405C240008054806490068896824
:100E0000054AC1F3C221515C01F01F01C84070477F
:100E100080000020001002405C24000870B52549C5
:100E2000002318468A68CC6812F00C0204F003060E
:100E3000214C4FEA640509D00C2A05D0042A32D08F
:100E4000082A00D1284670BD012E10D10B681B075F
:100E500004D4D1F89430C3F3032302E00B68C3F346
:100E60000313164E56F82330DAB10C2AEBD1C868BA
:100E700000F00300022818D0032818D01846CA68CA
:100E8000CB68C2F30212C3F306234343521CB3FBE5
:100E9000F2F2C868C0F34160401C4000B2FBF0F0C1
:100EA00070BD184670BD204670BD2046E7E7284655
:100EB000E5E70000001002400024F4002C240008A4
:100EC0002DE9F84304006FD0FE4DA86800F00C0631
:100ED000E86800F003072078C00664D576B10C2ED0
:100EE00001D1012F0AD0A069002828687AD040F0EB
:100EF00001002860FFF726FC80465DE02868800737
:100F000002D5A0690028DED0216A2868000703D531
:100F1000286800F0F00004E0D5F89400F02202EA1E
:100F20001010814216D9084600F06CFD00283BD114
:100F3000286840F0080028602868216A20F0F00046
:100F4000084328606868E16920F47F4040EA012096
:100F5000686016E0286840F0080028602868216A68
:100F600020F0F000084328606868E16920F47F40C1
:100F700040EA0120686026B9206A00F043FD00289D
:100F8000D5D1FFF74BFFA968CF4AC1F30311515CDC
:100F900001F01F01C840CD490860CD480068FFF747
:100FA000F5FB00287ED12EE0CAE000BFFFF7CAFBA8
:100FB000A0EB0800022876D828688007F6D52868B4
:100FC00040F0080028602868216A20F0F0000843FB
:100FD00028606868E16920F47F4040EA0120686089
:100FE00011E0FFE720F001002860FFF7ABFB80462F
:100FF00006E000BFFFF7A6FBA0EB08000228DAD846
:1010000028688007F6D42078C00740D0082E18D072
:101010000C2E01D1032F14D06068B0F5803F17D09B
:10102000B0F5A02F286817D020F4803028602868F9
:1010300020F4802028606068E0B1FFF783FB8046E1
:1010400014E02868800322D56068002878D01EE06C
:10105000286840F48030EDE740F480202860F7E70E
:10106000FFF770FBA0EB08006428A4D82868800371
:10107000F6D50CE0FFF766FB804605E0FFF762FB64
:10108000A0EB0800642896D828688003F6D420785E
:1010900080073BD5042E11D00C2E01D1022F0DD08C
:1010A000E06801E092E1F1E0002828681ED040F4F9
:1010B00080702860FFF746FB07460CE02868400573
:1010C0000CD5E0680028C1D008E000BFFFF73AFB6C
:1010D000C01B022893D828684005F7D56868217C92
:1010E00020F0F85040EA016068600FE020F4807062
:1010F0002860FFF727FB074605E000BFFFF722FB4C
:10110000C01B0228B1D828684005F7D42078000712
:1011100029D560690028D5F8940012D040F001006C
:10112000C5F89400FFF70EFB074604E0FFF70AFB43
:10113000C01B022899D8D5F894008007F6D512E094
:1011400000E120F00100C5F89400FFF7FBFA074624
:1011500005E000BFFFF7F6FAC01B022885D8D5F8D6
:1011600094008007F6D42078400766D5A86D002744
:10117000C00008D4A86D40F08050A865A86D012774
:1011800000F08050009053480168C90512D40168EE
:10119000814641F480710160FFF7D4FA804605E092
:1011A000FFF7D0FAA0EB080002286FD8D9F80000AA
:1011B000C005F5D5A068012816D00528D5F89000FF
:1011C00017D020F00100C5F89000D5F8900020F06D
:1011D000040000BFC5F89000A06841F28839C0B192
:1011E000FFF7B0FA80460FE0D5F8900040F001001C
:1011F000F0E740F00400C5F89000F5E7FFF7A2FA29
:10120000A0EB0801494541D8D5F890008007F5D5F5
:101210000EE0FFF797FA804606E000BFFFF792FA6C
:10122000A0EB0801494531D8D5F890008007F5D4E6
:101230001FB1A86D20F08050A865A06A38B30228BD
:101240000AD00C2E7ED0286820F080702860286894
:1012500010F0205F77D0AAE0E868E26A00F00301AE
:1012600091422BD1216B00F070020901103991429B
:1012700024D1626B00F4FE41B1EB022F1ED1A26BB0
:1012800000F40031072A03D0012202E09DE089E04A
:101290000022914212D1A18F00F4C00249084905F1
:1012A000A1F50011914209D194F8401000F0C060FE
:1012B00049084906A1F1007181425CD00C2E41D051
:1012C000286809E0001002401C240008800000206B
:1012D000780000200070004040017ED42868C000E3
:1012E0007BD4286820F080702860FFF72BFA064630
:1012F00005E000BFFFF726FA801B022865D82868A2
:101300008001F7D4D4E90B016FF00F0202EB011159
:101310000843A18F5204490802EB4151626B41EA34
:101320000221084394F840104FF07E42490802EB36
:1013300041610843A16B090940EA4140E968284A34
:10134000114001E049E02EE00843E860286840F0E1
:1013500080702860E86840F08070E860FFF7F2F97C
:10136000044604E0FFF7EEF9001B02282DD8286898
:101370008001F7D52FE0286880012CD4286840F040
:1013800080702860E86840F08070E860FFF7DAF964
:10139000044604E0FFF7D6F9001B022815D8286898
:1013A0008001F7D517E0E86820F00300E860E868FE
:1013B0000C490840E860FFF7C5F9044608E000BFA3
:1013C000FFF7C0F9001B022802D90320BDE8F8830B
:1013D00028688001F4D40020F8E70120F6E7000037
:1013E0008C809DF9FFFFEEFE10B5401EB0F1807FAE
:1013F00001D3012010BD4FF0E02460610F21601780
:1014000000F02BFE0020A06107202061002010BD0D
:1014100010B5040002D0606F10B107E0012010BDCC
:10142000002084F87000204600F026F82420606731
:101430002068016821F001010160204600F074FC81
:101440000128ECD0606A10B1204600F083FB2068D0
:10145000416821F4904141602068816821F02A01AF
:1014600081602068016841F0010101602046BDE80B
:10147000104000F0D3BB00002DE9F04186B00646D5
:1014800014216846FEF7D7FE2C493068884251D1B6
:101490002B48816D41F400318165816D01F400318B
:1014A0000591C16C41F00101C164C06C4FF00208AC
:1014B00000F0010005900C20CDE900080024032075
:1014C000CDE9024007200490474669464FF090401E
:1014D000FFF700F81C4D1B482860C5E90174802700
:1014E000C5E903476C61AC61EC6128462C62FEF7EC
:1014F0005FFF08B1FEF7FDFEF566AE621148134DC1
:101500001430E5E80208102091C5104845F8144948
:10151000AC61EC612C62FEF74BFF08B1FEF7E9FE0F
:10152000B566002211462620AE62FFF77DF926201F
:10153000FFF76CF906B0BDE8F08100000044004000
:10154000001002406C00024068010020B001002041
:1015500030B5836F202B4BD1B1B1AAB190F8703068
:10156000012B45D0012380F870304165A0F8582048
:10157000A0F85A20002101661D038268FF23AA42B9
:1015800007D1026912B125E0012030BD40F2FF12FF
:1015900026E07F24E2B1B2F1805F1ED0A0F85C109B
:1015A000C167222282670268936843F00103936057
:1015B0008268AA4201D10269C2B10E4A026680F86D
:1015C00070100068016841F490710160002030BD26
:1015D000026942B9A0F85C30E2E702691AB13F2221
:1015E000A0F85C20DCE7A0F85C40D9E7024AE5E718
:1015F000022030BDCF1C0008751C00087047000099
:101600002DE9F8430446406F1F4616460D46202834
:101610004FD1CDB1C6B194F87000012849D0012056
:1016200084F870004FF00008C4F87C8021206067C7
:10163000FFF788F8A4F850608146A4F85260A068CB
:10164000B0F5805F03D004E00120BDE8F883206995
:1016500028B12E465FF0000584F8708010E0002667
:10166000FAE78021204600F085FCB8B9C6B116F82B
:10167000010B21680885B4F85200401EA4F85200FE
:10168000B4F852004B464FF0000200970028E8D112
:101690004FF04001204600F06DFC30B10320D4E74C
:1016A00035F8020BC0F30800E3E720206067002054
:1016B000CBE70220C9E7FEE7F0B587B01421684602
:1016C000FEF7B9FD2E48C16C41F00401C164C16C44
:1016D00001F004010591C16C41F08001C164C16C4D
:1016E00001F080010591C16C41F00101C164C16C40
:1016F00001F001010591C16C41F00201C164C06CAF
:101700004FF0904600F00200059000222021304664
:10171000FFF713F81B4F002280213846FFF70DF822
:101720004FF40050009018480024CDE901046946A8
:101730003846FEF7CFFE202000900125CDE9015468
:10174000694630460394FEF7C5FE4020CDE900040B
:10175000694630460294FEF7BDFE80200090CDE938
:101760000154694638460394FEF7B4FE0022114640
:101770002820FFF759F82820FFF748F807B0F0BDF8
:101780000010024000080048000021100C4810B56D
:101790000A4901604FF416514160002181600C221A
:1017A000C160C0E904128161C16101624162FFF759
:1017B0002FFE002801D072B6FEE710BD00440040A5
:1017C00084000020FEE7FEE7704700002DE9F041AD
:1017D000444C05468846E0680026810728680DD0FD
:1017E000E16801F00301814216D1A8B1E06869689F
:1017F000C0F30210401C88420ED120E0012804D022
:10180000022805D0032807D108E02168890701E0F4
:1018100021684905002907DB01265FE0216889036B
:1018200002D421684903F5E7E1686A686FF00F03A5
:1018300021F0730103EB021211430143E1602068C0
:1018400020F080602060FEF77DFF074605E000BFC6
:10185000FEF778FFC01B022837D820680001F7D4B4
:10186000B8F1000F18D0B8F1010F1ED0287D4FF04D
:101870007E41400801EB4060A96840EA01202169EF
:10188000194A114008432061206840F080602060C0
:10189000FEF758FF07461AE0A868E9680002090940
:1018A00040EA41402169114AEBE7288A1049400883
:1018B00001EB4050A96840EA012021690D4AE0E7A8
:1018C000FEF740FFC01B022801D9032606E020686E
:1018D0000001F5D52069A969084320613046BDE8BB
:1018E000F081000000100240FF80FFF9FF80FDFF43
:1018F0000000E0FFFF809FFF2DE9F0413D4C0646D0
:101900008846E0680025810730680DD0E16801F065
:101910000301814216D1A8B1E0687168C0F30210DA
:10192000401C88420ED120E0012804D0022805D0B6
:10193000032807D108E02168890701E021684905EB
:10194000002907DB012551E02168890302D42168C1
:101950004903F5E7E16872686FF00F0321F0730146
:1019600003EB021211430143E160206820F0805034
:101970002060FEF7E7FE074605E000BFFEF7E2FE47
:10198000C01B022829D820688000F7D4B8F1000FC6
:1019900015D0307C4FF07E41400801EB4060B168CB
:1019A00040EA01206169144A1140084360612068DF
:1019B00040F080502060FEF7C5FE07460FE0B0689B
:1019C000F1680002090940EA414061690B4AEBE70E
:1019D000FEF7B8FEC01B022801D9032506E02068E7
:1019E0008000F5D560697169084360612846BDE8EB
:1019F000F081000000100240FF80FFF9FF80FDFF32
:101A000070470000F8B51C4D06460024A86DC000C4
:101A100002D5FEF76FFF0DE0A86D40F08050A8657D
:101A2000A86D00F080500090FEF764FFA96D21F0D2
:101A30008051A965B0F5007F04D0802E07D94FF002
:101A400003040AE0802E08D9A02E01D804E001D1B9
:101A5000022402E0702E00D101240848016821F020
:101A6000070121430160006800F00700A04201D097
:101A70000120F8BD0020F8BD001002400020024007
:101A80007047FEF765BE30B5B9B0442122A8FEF715
:101A9000D2FB142133A8FEF7CEFB88216846FEF75F
:101AA000CAFB0224E00125901020229426902C9459
:101AB0000120CDE92D400A202F900720CDE93004E8
:101AC00022A83294FFF7FCF908B172B6FEE70F20A6
:101AD000002533900320CDE934053695042133A841
:101AE0003795FFF7E7F808B172B6FEE70F9568463D
:101AF0000094FEF707FF08B172B6FEE74FF40070DE
:101B0000FEF7C4FE002801D072B6FEE739B030BD42
:101B10000D48016841F4700101600C48016841F012
:101B200001010160002181600268094B1A400260D6
:101B30008214C260026822F480220260816102493C
:101B4000C00380390860704788ED00E00010024053
:101B5000FFFFF6EA90F82410C90706D001684A682A
:101B6000836A22F400321A434A6090F824108907ED
:101B700006D501684A68C36A22F480321A434A6073
:101B800090F82410490706D501684A68036B22F4CF
:101B900080221A434A6090F82410090706D501688C
:101BA0004A68436B22F400421A434A6090F82410BA
:101BB000C90606D501688A68836B22F480521A43ED
:101BC0008A6090F82410890606D501688A68C36B7C
:101BD00022F400521A438A6090F82410490611D565
:101BE00001684A68036C22F480121A434A60016C4F
:101BF000B1F5801F06D101684A68436C22F4C00227
:101C00001A434A6090F82410090606D501684A680C
:101C1000806C22F4002202434A607047F8B5002627
:101C20000446C667FEF78EFD0546206800686FF023
:101C30007E47000708D52B4600224FF400112046AE
:101C4000009700F097F960B92068006840070AD54E
:101C50002B4600224FF480012046009700F08AF9BD
:101C600008B10320F8BD20206067A06784F8706089
:101C70000020F8BD10B5B0F85C20836F0168222BFE
:101C800004D0088B40F00800088310BD898C436D98
:101C900011401980416D891C4165B0F85A10491EE8
:101CA000A0F85A10B0F85A100029EED101680A685D
:101CB00022F490720A6001688A6822F001028A6048
:101CC0002021816700210166FFF798FC10BD10B547
:101CD000B0F85C20836F0168222B04D0088B40F0A1
:101CE0000800088310BD898C1140426D1170416D50
:101CF000491C4165B0F85A10491EA0F85A10B0F8B6
:101D00005A100029EED101680A6822F490720A6024
:101D100001688A6822F001028A602021816700211F
:101D20000166FFF76BFC10BD2DE9F0410446016828
:101D300080682269E3691043626900251A431043F1
:101D4000824F0A68824B1A4002430A602068416849
:101D5000E26821F44051114341602168A069B94211
:101D600001D0226A10438A6822F4306202438A60FA
:101D70007849226878488A420DD1D0F8880010F05E
:101D8000030006D0012866D0022854D0032851D180
:101D900063E001204FE071498A420BD1D0F88800FE
:101DA00010F00C0047D0042845D0082851D00C284A
:101DB00040D152E06A498A420BD1D0F8880010F035
:101DC000300038D0102846D0202842D0302831D1D9
:101DD00043E064498A420BD1D0F8880010F0C0007B
:101DE00029D0402837D0802833D0C02822D134E0F1
:101DF0005D498A420ED1D0F8880010F440701AD0A4
:101E0000B0F5807F27D0B0F5007F22D0B0F5407FBD
:101E100010D122E0BA420DD1D0F8880010F4406011
:101E200009D0B0F5806F16D0B0F5006F11D0B0F5C5
:101E3000406F12D010204D4B00264FF40041BA42A3
:101E40002ED160B1022813D004280BD0082874D1F9
:101E50000DE00220EFE70420EDE70820EBE7FEF7B6
:101E6000B9FF01E0FEF7DAFF030001D169E00B469C
:101E7000626802EB420098425FD8B3EB023F5CD845
:101E8000190E180273084FEA3207C019594100238E
:101E9000FEF796F9364AA0F5407191424FD94CE0D1
:101EA000E2694FF6EF778A4228D1092845D2DFE868
:101EB00000F0050811440D4444441000FEF78AFF69
:101EC00001E0FEF799FF030004D13AE0FEF7A6FF18
:101ED000F9E70B466068590001EB5001B1FBF0F0E7
:101EE00080B2A0F11001B94227D84FF6F07101403D
:101EF000C0F3420001432068C16022E009281CD2DF
:101F0000DFE800F00508111B0D1B1B1B1000FEF77E
:101F100061FF01E0FEF770FF030004D111E0FEF75E
:101F20007DFFF9E70B46606803EB5001B1FBF0F071
:101F300080B2A0F11001B94201D9012501E0216868
:101F4000C860266628466666BDE8F08100800040CD
:101F5000F369FFEF003801400010024000440040E8
:101F600000480040004C0040005000400024F400B5
:101F7000FFFC0F002DE9F0479A4617460E4604462F
:101F80004FF000094FF02008089D39E0681C37D059
:101F9000FEF7D8FBA0EB0A00A84222D80DB32068B8
:101FA000016849072CD5C069C043000528D42168C1
:101FB0004FF4006008622068016821F4D07101606C
:101FC0002068816821F001018160C4F87480C4F840
:101FD0007880C4F87C8000BF84F870900320BDE84E
:101FE000F0872068016821F4D07101602068816861
:101FF00021F001018160C4F87480C4F87880EBE7B7
:102000002068C06936EA000004D00020B842BDD084
:102010000020E4E70120F9E70B480068C169890660
:102020000AD540F225510162084800880849087025
:102030000849012008707047C1690907FBD54FF4B2
:102040004071016270470000840000202444004079
:102050000200002001000020FEE70907090E002809
:1020600004DB00F1E02080F80014704700F00F005E
:1020700000F1E02080F8141D704702E008C8121F2C
:1020800008C1002AFAD170477047002001E001C161
:10209000121F002AFBD170472DE9F0477D4D0646FF
:1020A000002280212846FEF748FB7B4964231A461C
:1020B000A1F18000FFF7A4FA00244FF4FA784FF45E
:1020C0007A79764FD2E0305D21385A2871D2DFE834
:1020D00000F0B9C3C3C3C3C3C3C3C3C3C39DC38ACF
:1020E000C377798084868A8C909496AEA7C3C3C345
:1020F000B2C32D2F343B3941494B3F5056585A47B4
:102100005C5E60444E546266686C7173C3C3C3C343
:10211000C3C32D2F343B3941494B3F5056585A4782
:102120005C5E60444E546266686C7173C82022E045
:1021300040461AE000F028F997E040460BE000BF67
:1021400000F022F9C820F5E74FEA080000F01CF97A
:10215000C820F5E7C82000F017F9C82000F014F9EE
:102160004046EDE74046F9E7C82000F00DF9C820E9
:10217000ECE7C8202AE000F007F94046DAE74046DD
:102180000AE0C82019E04046F5E740460AE0C820CA
:1021900039E0404641E0C82000F0F6F8C6E7C82024
:1021A00004E0C82000F0F0F8EDE7404600F0ECF85D
:1021B000F1E751E040464CE0404600F0E5F8C3E767
:1021C000404600E0C82000F0DFF8404600F0DCF8B0
:1021D000DBE7C82000F0D8F8CBE7C82036E0C820FD
:1021E00000F0D2F8DBE7C82000E0404600F0CCF871
:1021F000BAE7404600F0C8F89AE740461FE040467C
:1022000000F0C2F8404600F0BFF8ABE7C82000F08D
:10221000BBF8404600F0B8F8C82000F0B5F8AEE7CB
:10222000404600F0B1F8C82000F0AEF885E740461F
:1022300000F0AAF8DDE7C82000F0A6F8C82000F0FA
:10224000A3F8B9E7404600F09FF8404600F09CF83C
:10225000C82000F099F8A4E7002220214FF0904018
:10226000FEF76BFA4846FEF703F9641C786884426F
:10227000FFF629AF012280212846FEF75EFA484684
:10228000FEF7F6F82846BDE8F04700228021FEF769
:1022900054BA00000008004804010020000000209B
:1022A00008B5FEF75DFAFFF7EEFBFFF705FA3348D6
:1022B000816C41F001018164806C002200F001001A
:1022C000009011461020FEF7AFFA1020FEF79EFA9C
:1022D000002211461120FEF7A7FA1120FEF796FA08
:1022E000FFF754FA6423062225492648FFF788F9A8
:1022F000244E234C00258036083C2249642280313C
:102300002048FFF725F960780028FCD06078012884
:10231000F3D16570A0780A2813D0A0780D2810D0CA
:102320006068642824DB164964231A46891D154811
:10233000FFF766F9134864218030FDF77CFF656084
:102340000AE06068C0F164013044FDF774FF207852
:10235000012808D000F034F864230622084909480F
:10236000FFF74EF9C9E707488030FFF795FEE6E72B
:10237000A1783154401C6060BFE7000000100240AB
:10238000080000208400002070B505464FF09044FE
:10239000002220212046FEF7D0F9012220212046EC
:1023A000FEF7CBF92846FEF763F8002220212046ED
:1023B000FEF7C3F9BDE870406420FEF759B800008D
:1023C000124910B564231A46A1F18000FFF718F9ED
:1023D0000FA10E48FDF73AFF4FF0904420B90122BB
:1023E00020212046FEF7A9F90AA10848FDF72EFF93
:1023F00020B9002220212046FEF79FF964210348DE
:10240000FDF719FF04490020486010BD04010020B9
:102410006F6E00006F666600000000200000000084
:10242000000000000102030406070809A08601005D
:10243000400D0300801A060000350C0040420F00DA
:1024400080841E0000093D0000127A000024F40080
:1024500000366E010048E801006CDC02000000005C
:10246000010203048424000800000020840000000E
:102470007A20000808250008840000207405000068
:102480008A20000801000000000000000A0A0D3E3A
:102490003E3E4F766572666C6F7720686173206F81
:1024A000636375727265640A0A0D00000000000023
:1024B000000000000000000000000000000000001C
:1024C000000000000000000000000000000000000C
:1024D00000000000000000000000000000000000FC
:1024E00000000000000000000000000000000000EC
:1024F00000000000000000000100000010000000CB
:082500000000000000093D008D
:040000050800018965
:00000001FF
